:1000000031C061C333C353C052C051C0E5C2AFC396
:1000100087C34DC04CC04BC04AC049C048C047C050
:1000200046C045C044C043C042C000003A0037004B
:100030000000310000003B003800000032000404E2
:100040000101040404040402020202020202020189
:10005000010202010408102040010204081020409F
:100060008004E40311241FBECFE5D1E0DEBFCDBF85
:1000700020E0ACE7B0E001C01D92AE3DB207E1F771
:1000800010E0A0E6B0E0E2EAFDE002C005900D92CB
:10009000AC37B107D9F710E0C2E3D0E003C0219735
:1000A000FE0177D6C133D107D1F7C5D378C6A8CF23
:1000B0008230A0F49FB7F894E82FF0E0EE0FFF1F16
:1000C000E956FF4F718360839FBF813041F085B750
:1000D0008C7F826085BF8BB780648BBF089585B7A6
:1000E000837F886085BF8BB78068F7CF3FB7F89470
:1000F0008091930090919400A0919500B09196000A
:1001000022B708B601FE05C02F3F19F00196A11DC8
:10011000B11D3FBFBA2FA92F982F8827BC01CD0151
:10012000620F711D811D911D43E0660F771F881FAF
:10013000991F4A95D1F70895CF92DF92EF92FF92DF
:10014000CF93DF936B017C01D1DFEB01CFDF6C1B21
:100150007D0B683E7340A0F0C114D104E104F104AA
:1001600039F4DF91CF91FF90EF90DF90CF90089519
:1001700081E0C81AD108E108F108C851DC4FE6CF88
:10018000C114D104E104F10409F7EBCF809184009C
:1001900090918500019690938500809384008091D2
:1001A0008400909185008097B4F1809180009091B7
:1001B0008100A0918200B091830040917C00509119
:1001C0007D0060917E0070917F008827B7FD839548
:1001D0009927AA27BB27842B952BA62BB72B809377
:1001E0007C0090937D00A0937E00B0937F0080916F
:1001F0007C0090917D00A0917E00B0917F00880FDF
:10020000991FAA1FBB1F80937C0090937D00A09331
:100210007E00B0937F008091800090918100A0913A
:100220008200B09183008160809380009093810070
:10023000A0938200B0938300809180009091810010
:10024000A0918200B0918300880F991FAA1FBB1F45
:100250008093800090938100A0938200B0938300EC
:100260002FB7F89480918F0090919000A091910009
:10027000B09192002FBF8093860090938700A09347
:100280008800B09389000895CF92DF92EF92FF9299
:100290000F931F93CF93DF936C01EB017B01E40E6F
:1002A000F51E10E000E0CE15DF0561F06991D60182
:1002B000ED91FC910190F081E02DC6010995080FA8
:1002C000191FF1CFC801DF91CF911F910F91FF90BE
:1002D000EF90DF90CF900895FC01A685B7855096EA
:1002E0002C91509730E02F5F3F4F2F703327822F94
:1002F00051969C9151979817D9F350968C9150979D
:10030000A80FB11D6C93A685B78550962C93A6892E
:10031000B7898C91958D21E030E001C0220F9A952C
:10032000EAF7822B8C9381E090E00895DC011E9621
:10033000ED91FC91908981899813FCCF0895DC019F
:100340001C96ED91FC9190898189981771F0A18993
:10035000AE0FBF2FB11D8C91218930E02F5F3F4F31
:100360002F703327218B90E008958FEF9FEF089532
:10037000DC011C96ED91FC9190898189981731F0F0
:100380008189E80FF11D808190E008958FEF9FEF44
:100390000895DC011C96ED91FC918089218990E003
:1003A0004096821B91098F7099270895809184004F
:1003B00090918500019690938500809384008091B0
:1003C0008400909185008097B4F180918000909195
:1003D0008100A0918200B091830040917C005091F7
:1003E0007D0060917E0070917F008827B7FD839526
:1003F0009927AA27BB27842B952BA62BB72B809355
:100400007C0090937D00A0937E00B0937F0080914C
:100410007C0090917D00A0917E00B0917F00880FBC
:10042000991FAA1FBB1F80937C0090937D00A0930F
:100430007E00B0937F008091800090918100A09118
:100440008200B0918300880F991FAA1FBB1F809361
:10045000800090938100A0938200B09383002FB717
:10046000F89480918F0090919000A0919100B091AC
:1004700092002FBF8093860090938700A0938800FE
:10048000B093890008959FB59F7D9FBD811105C0E0
:100490008FB7F894C4988FBF08958FB7F894C49A13
:1004A000FACF80E0F0DF65E070E080E090E044CEDD
:1004B00081E0E9DF6AE070E080E090E03DCECF933C
:1004C000DF9387FD8FEF90E0FC01E05BFF4F24910D
:1004D000825C9F4FFC0184918823D1F090E0880FCB
:1004E000991FFC01E65DFF4FA591B491FC01EC5C06
:1004F000FF4FC591D49161110EC09FB7F8948C91B4
:10050000E22FE0958E238C932881E223E8839FBF1E
:10051000DF91CF9108958FB7F894EC91E22BEC9393
:100520008FBFF6CF8F929F92AF92BF92EF92FF92C2
:100530000F931F93CF93DF93CDB7DEB7A1970FB67D
:10054000F894DEBF0FBECDBF162F042F19A2423084
:1005500008F40AE07E0121E2E20EF11C802E912CCB
:10056000B12CA12C612FA5019401F1D3802F622F12
:10057000E5D3181B1A303CF5105DF70112937F018B
:10058000122F732FCA01232B242B252B59F70190EF
:100590000020E9F73197AF014E195F09B7018FEBE2
:1005A00090E072DEA1960FB6F894DEBF0FBECDBF0D
:1005B000DF91CF911F910F91FF90EF90BF90AF907F
:1005C0009F908F900895195CD8CF4AE050E060E783
:1005D00070E08FEB90E058CE1F920F920FB60F9203
:1005E00011242F933F938F939F93AF93BF93809149
:1005F0008F0090919000A0919100B0919200309165
:100600008E0026E0230F2D3768F129E8230F03968B
:10061000A11DB11D20938E0080938F0090939000B8
:10062000A0939100B09392008091930090919400D8
:10063000A0919500B09196000196A11DB11D8093E7
:10064000930090939400A0939500B0939600BF916F
:10065000AF919F918F913F912F910F900FBE0F906F
:100660001F9018950296A11DB11DD4CF1F920F9215
:100670000FB60F9211242F933F934F935F936F9375
:100680007F938F939F93AF93BF93EF93FF9380914B
:10069000990090919A00892B29F0E0919900F091AE
:1006A0009A000995FF91EF91BF91AF919F918F9122
:1006B0007F916F915F914F913F912F910F900FBE5E
:1006C0000F901F9018951F920F920FB60F92112442
:1006D0002F933F934F935F936F937F938F939F934A
:1006E000AF93BF93EF93FF93809197009091980001
:1006F000892B29F0E0919700F09198000995FF91DE
:10070000EF91BF91AF919F918F917F916F915F9189
:100710004F913F912F910F900FBE0F901F90189502
:100720001F920F920FB60F9211242F938F939F93C6
:10073000EF93FF938091AC009091AB0098130BC0A6
:100740005598FF91EF919F918F912F910F900FBE30
:100750000F901F90189590E0FC01E556FF4F208107
:1007600001968F7099278093AC002CB9EACF1F9225
:100770000F920FB60F9211242F933F934F935F93D5
:100780008F939F93EF93FF934CB18091BD0090E0C6
:100790009C012F5F3F4F2F7033275091BE0052179F
:1007A00031F083559F4FFC0140832093BD00FF91A2
:1007B000EF919F918F915F914F913F912F910F906A
:1007C0000FBE0F901F901895EFEBF0E0138212828E
:1007D00088EE93E0A0E0B0E084839583A683B7839E
:1007E00084E690E0918380838DEA90E0958784870A
:1007F0008BE990E09787868782E290E0918B808BEF
:1008000089E290E0938B828B8BE290E0958B848BD6
:100810008AE290E0978B868B8CE290E0918F808FBC
:1008200084E0828F83E0838F87E0848F85E0858FEB
:1008300081E0868F089583E080BF83BF789489B775
:10084000826089BFE091D300F091D4002091DD0057
:1008500081E090E0AC0102C0440F551F2A95E2F7F9
:100860004083E091CF00F091D0001082E091D10060
:10087000F091D2002FEC2083E091D500F091D600CA
:1008800020813091D900AC0101C0440F3A95EAF7BC
:10089000242B2083E091D500F091D6002081309167
:1008A000DA00AC0101C0440F3A95EAF7242B20830B
:1008B000E091D500F091D60020813091DB00AC01B1
:1008C00001C0440F3A95EAF7242B2083E091D5002C
:1008D000F091D60020813091DC0001C0880F3A955C
:1008E000EAF7809582238083109286001092870019
:1008F000109288001092890010927C0010927D0066
:1009000010927E0010927F00109280001092810061
:10091000109282001092830010928A0010928B0035
:1009200010928C0010928D0010928500109284001D
:1009300060E084E0C4DD60E085E0C1DD66ED71E08B
:1009400080E0B6DB66EC70E081E0B2DB61E08DE078
:10095000B6DDF8948FB7F89400918F001091900055
:1009600020919100309192008FBF809186009091EC
:100970008700A0918800B0918900B901A801481BA7
:10098000590B6A0B7B0BDB01CA014A97A105B10524
:1009900010F47894DECF8091840090918500489780
:1009A000D9F180918400909185004A97A9F18091B6
:1009B000840090918500809779F1809184009091D6
:1009C0008500829749F18091840090918500089775
:1009D00019F180918400909185000497E9F00093CB
:1009E000860010938700209388003093890010922E
:1009F0008500109284001092800010928100109265
:100A000082001092830010927C0010927D00109260
:100A10007E0010927F00BDCF809180009091810078
:100A2000A0918200B0918300B695A7959795879580
:100A30008093800090938100A0938200B093830004
:100A400080918400909185008197A4F080917C0032
:100A500090917D00A0917E00B0917F00B695A79502
:100A60009795879580937C0090937D00A0937E005E
:100A7000B0937F008091840090918500089709F0E1
:100A80004AC0409180005091810060918200709135
:100A900083008091800090918100A0918200B091AC
:100AA00083008F70E0918400F091850010928500A2
:100AB00010928400109280001092810010928200A7
:100AC0001092830010927C0010927D0010927E00A4
:100AD00010927F00E4E07695679557954795EA95E3
:100AE000D1F740954F7084137ACF8A3081F08B30E4
:100AF00081F0082E000C990BAA0BBB0B80938A0087
:100B000090938B00A0938C00B0938D003FC08BE13D
:100B1000F0CF8DE0EECF8091840090918500049716
:100B200009F05FC08091800090918100A0918200C7
:100B3000B09183008F708A3009F44FC08B3009F474
:100B40004EC0082E000C990BAA0BBB0B80938A0099
:100B500090938B00A0938C00B0938D0080918400C3
:100B60009091850010928500109284001092800070
:100B700010928100109282001092830010927C00EB
:100B800010927D0010927E0010927F0078948FEB7F
:100B900090E0FFDB892B31F084DC64E670E080E0DC
:100BA00090E0CADA85DC11DD60918A0070918B00DB
:100BB00080918C0090918D0040E1B4DC6DE08FEB72
:100BC00090E08ADB6AE08FEB90E086DB62E370E026
:100BD00080E090E0B1DA65DCBCCE8BE1B2CF8DE095
:100BE000B0CF80918400909185008A3131F5809159
:100BF000800090918100A0918200B0918300B69511
:100C0000A79597958795BB27209184003091850003
:100C10001092850010928400109280001092810042
:100C2000109282001092830010927C0010927D003E
:100C300010927E0010927F0061CF883179F480910C
:100C4000800090918100A0918200B0918300B695C0
:100C5000A79597958795AF73BB27D6CF823209F0BA
:100C600054C080917C0090917D00A0917E00B09155
:100C70007F0083709927AA27BB2780937C009093DD
:100C80007D00A0937E00B0937F0080917C009091C6
:100C90007D00A0917E00B0917F003EE1880F991FFA
:100CA000AA1FBB1F3A95D1F780937C0090937D00DB
:100CB000A0937E00B0937F0080918000909181008E
:100CC000A0918200B0918300B695A79597958795DE
:100CD0008093800090938100A0938200B093830062
:100CE00080917C0090917D00A0917E00B0917F006A
:100CF000409180005091810060918200709183004A
:100D0000842B952BA62BB72B7FCF803271F480914B
:100D1000800090918100A0918200B0918300B695EF
:100D2000A79597958795BF736FCF8091800090911D
:100D30008100A0918200B091830066CF002480FDE5
:100D4000060E660F11F08695D1F7802D0895A1E269
:100D50001A2EAA1BBB1BFD010DC0AA1FBB1FEE1F35
:100D6000FF1FA217B307E407F50720F0A21BB30B80
:100D7000E40BF50B661F771F881F991F1A9469F7FC
:100D800060957095809590959B01AC01BD01CF0158
:100D90000895EE0FFF1F0590F491E02D0994F8944B
:020DA000FFCF83
:100DA200000000006C014401C9019F01B8019601D5
:0C0DB2004F55543A54524649443A000050
:00000001FF
