:100000003AC05EC05DC05CC05BC05AC0C6C136C2EB
:100010000EC256C055C054C053C052C051C050C08B
:100020004FC04EC04DC04CC04BC00000000000008F
:1000300000020000000103040000000000003B007B
:1000400038000000320000003A00370000003100A4
:100050000404010104040404040202020202020274
:1000600002010102020104081020400102040810EC
:1000700020408004270311241FBECFE5D1E0DEBF5E
:10008000CDBF20E0A4EAB0E001C01D92AD3FB207B1
:10009000E1F710E0A0E6B0E0EEEDF6E002C005907A
:1000A0000D92A43AB107D9F710E0CBE3D0E003C03A
:1000B0002197FE0103D3CA33D107D1F70CD20DC368
:1000C0009FCF3FB7F8948091DA009091DB00A09128
:1000D000DC00B091DD0022B708B601FE05C02F3F5D
:1000E00019F00196A11DB11D3FBFBA2FA92F982F5E
:1000F0008827BC01CD01620F711D811D911D43E058
:10010000660F771F881F991F4A95D1F70895CF92E0
:10011000DF92EF92FF92CF93DF93D3DFEB0184EF77
:10012000C82EDD24D394E12CF12CCBDF6C1B7D0B8E
:10013000683E7340A0F0C114D104E104F10439F425
:10014000DF91CF91FF90EF90DF90CF90089581E005
:10015000C81AD108E108F108C851DC4FE6CFC11434
:10016000D104E104F10409F7EBCFCF92DF92EF92D3
:10017000FF920F931F93CF93DF936C01EB017B01F1
:10018000E40EF51E10E000E0CE15DF0561F0699188
:10019000D601ED91FC910190F081E02DC601099509
:1001A000080F191FF1CFC801DF91CF911F910F9157
:1001B000FF90EF90DF90CF900895FC01A685B78562
:1001C00050962C91509730E02F5F3F4F2F70332780
:1001D000822F51969C9151979817D9F350968C91F4
:1001E0005097A80FB11D6C93A685B78550962C9398
:1001F000A689B7898C91958D21E030E001C0220F4E
:100200009A95EAF7822B8C9381E090E00895DC01C7
:100210001E96ED91FC91908981899813FCCF0895E9
:10022000DC011C96ED91FC9190898189981771F001
:10023000A189AE0FBF2FB11D8C91218930E02F5FB6
:100240003F4F2F703327218B90E008958FEF9FEF62
:100250000895DC011C96ED91FC9190898189981795
:1002600031F08189E80FF11D808190E008958FEFD2
:100270009FEF0895DC011C96ED91FC918089218906
:1002800090E04096821B91098F709927089590E025
:10029000FC01EE59FF4F2491805B9F4FFC0184913C
:1002A000882399F090E0880F991FFC01EA5BFF4FCB
:1002B000A591B491FC01E45CFF4F859194918FB7B7
:1002C000F894EC91E22BEC938FBF089590E0FC0141
:1002D000E65DFF4F3491FC01EE59FF4F2491FC0184
:1002E000E05BFF4FE491EE23B9F0332329F0313086
:1002F000A1F480B78F7780BFF0E0EE0FFF1FE45CC2
:10030000FF4FA591B4918FB7611117C0F894EC918C
:1003100020952E232C938FBF0895323019F480B787
:100320008F7DE9CF333021F48FB58F778FBDE4CF48
:10033000343011F78FB58F7DF9CFF894EC912E2BD7
:10034000E9CF60E089E0C2DF60E08AE0BFDF60E023
:100350008BE0BCCF0F931F93CF93DF93FC010190F1
:100360000020E9F73197AF01481B590BBC018EED16
:1003700090E0FBDEEC016DE08EED90E01EDF8C0185
:100380006AE08EED90E019DFC00FD11F8C0F9D1F2A
:10039000DF91CF911F910F9108951F920F920FB689
:1003A0000F9211242F933F938F939F93AF93BF93FB
:1003B0008091D6009091D700A091D800B091D9003B
:1003C0003091D50026E0230F2D3768F129E8230F5F
:1003D0000396A11DB11D2093D5008093D600909364
:1003E000D700A093D800B093D9008091DA00909103
:1003F000DB00A091DC00B091DD000196A11DB11DD4
:100400008093DA009093DB00A093DC00B093DD00D2
:10041000BF91AF919F918F913F912F910F900FBE00
:100420000F901F9018950296A11DB11DD4CF1F9259
:100430000F920FB60F9211242F938F939F93EF93E8
:10044000FF938091B5009091B40098130BC055981C
:10045000FF91EF919F918F912F910F900FBE0F9071
:100460001F90189590E0FC01EC55FF4F20810196FC
:100470008F7099278093B5002CB9EACF1F920F9205
:100480000FB60F9211242F933F934F935F938F9347
:100490009F93EF93FF934CB18091C60090E09C0135
:1004A0002F5F3F4F2F7033275091C700521731F005
:1004B0008A549F4FFC0140832093C600FF91EF9127
:1004C0009F918F915F914F913F912F910F900FBE10
:1004D0000F901F90189583E080BF83BF789489B7F1
:1004E000826089BFE091F200F091F3002091FC005E
:1004F00081E090E0AC0102C0440F551F2A95E2F75D
:100500004083E091EE00F091EF001082E091F00066
:10051000F091F10027E62083E091F400F091F500DE
:1005200020813091F800AC0101C0440F3A95EAF700
:10053000242B2083E091F400F091F500208130918C
:10054000F900AC0101C0440F3A95EAF7242B20834F
:10055000E091F400F091F50020813091FA00AC01B7
:1005600001C0440F3A95EAF7242B2083E091F40070
:10057000F091F50020813091FB0001C0880F3A9581
:10058000EAF780958223808389E081DE8AE07FDE3E
:100590008BE07DDEC8ECD0E01DE08EED90E06ADE01
:1005A00018161906D4F78EED90E03ADE8A3009F07D
:1005B00047C01092D50088EC90E0CCDE60E770E098
:1005C00088EC90E081D0892B71F460E089E07EDED8
:1005D00060E08AE07BDE61E08BE078DE8DE790E032
:1005E000B9DE95DDAEDE62E870E088EC90E06CD0BC
:1005F000892B71F460E089E069DE61E08AE066DE03
:1006000060E08BE063DE80E990E0A4DE80DD99DECF
:1006100066E970E088EC90E057D0892B59F461E0EE
:1006200089E054DE60E08AE051DE60E08BE04EDE7F
:100630006EDD87DEFE01412F11924A95E9F7ADCFBD
:10064000FE0101900020E9F731978083A6CFEEEDFF
:10065000F0E01382128288EE93E0A0E0B0E08483A1
:100660009583A683B78384E690E09183808386EBAD
:1006700090E09587848784EA90E09787868782E276
:1006800090E0918B808B89E290E0938B828B8BE260
:1006900090E0958B848B8AE290E0978B868B8CE23E
:1006A00090E0918F808F84E0828F83E0838F87E05A
:1006B000848F85E0858F81E0868F0895EE0FFF1F80
:1006C0000590F491E02D0994FB01DC018D910190DE
:0E06D00080190110D9F3990B0895F894FFCF0B
:1006DE0000000000DD00B5003A01100129010701FC
:1006EE00494E3A474154453A4F50454E0042554BBC
:1006FE004100494E3A474154453A434C4F53450009
:10070E00545554555000494E3A474154453A535466
:04071E004F50000038
:00000001FF
